:060000000A128A110C280F
:10000800FE00030EF0000A08F1000A128A11E42C1F
:100018000A128A110F28FA01FB0183135D3084004C
:1000280066300A128A11A8260A128A11A0308400A2
:10003800C0300A128A11A8260A128A1183010A12EC
:100048008A1126280A128A1117260A128A1183127F
:100058000313DB01DC01A501A50A0130A60001306C
:100068000A128A112E250A128A11003083120313EC
:10007800A7000030A6000B30A500B830A4000A1273
:100088008A11F8230A128A1101300A128A114C26A1
:100098000A128A11003083120313D6000030D500EB
:1000A8000030D4000030D3000030DA000030D9002E
:1000B8000030D8000030D7005708CF005808D000CB
:1000C8005908D1005A08D2005308CF025408031C1B
:1000D800540F6F287028D0025508031C550F752837
:1000E8007628D1025608031C560F7B287C28D2029A
:1000F8005208031D8D285108031D8D280F3050020A
:10010800031D8A28A1304F02031D8A2803188D2851
:100118008E28022983120313A501A50A1E30A60002
:1001280001300A128A112E250A128A11831203132A
:100138005C08C5005B08C4000A128A1164260A120A
:100148008A1183120313861AAA28AB28C328013000
:10015800DB070318DC0A0030DC070030E000003061
:10016800DF000030DE000030DD00861EBC28BD2820
:10017800B92801300A128A114C260A128A118312F0
:100188000313061BC828C928E7285B085C04031961
:10019800CE28CF28D528FF30DB070318DC0AFF302C
:1001A800DC070030E0000030DF000030DE00003007
:1001B800DD00061FE028E128DD2801300A128A1137
:1001C8004C260A128A1183120313861BEC28ED2889
:1001D8006E29DB01DC010030E0000030DF00003078
:1001E800DE000030DD00861FFA28FB28F7280130E2
:1001F8000A128A114C260A128A116E2901300A1233
:100208008A114C260A128A111329831203136008D3
:10021800DA005F08D9005E08D8005D08D7008312AD
:1002280003135708CF005808D0005908D1005A08BE
:10023800D2005308CF025408031C540F242925293F
:10024800D0025508031C550F2A292B29D10256081C
:10025800031C560F30293129D2025208031D4229A6
:100268005108031D42290F305002031D3F29A130B8
:100278004F02031D3F2903184229432909298312E4
:100288000313A501A50A1030A60001300A128A112D
:100298002E250A128A11003083120313A70000309A
:1002A800A6000730A500D030A4000A128A11F8234E
:1002B8000A128A11003083120313E0000030DF00B5
:1002C8000030DE000030DD0001300A128A114C26B1
:1002D8000A128A110A128A119D260A128A11831299
:1002E80003132308DA002208D9002108D8002008BF
:1002F800D70060280A128A110C2883120313A90058
:10030800260884008313000884000A128A116125D4
:100318000A128A11253A031D92299329582A013075
:10032800FF00260884007F088007E101E20103102E
:10033800003003180130E500FF30E300FF30E4002F
:10034800260884000008AA002A0884000A128A11D4
:1003580061250A128A11643A0319B329B429C029FC
:100368002A0884000A128A1161250A128A11693A38
:10037800031DBF29C0294E2A270884000008FF0052
:10038800023080077F0884000008AB00840A000858
:10039800AC00260884002A08013E80002030AF0007
:1003A800AC1BD729D9290130DA290030A80001303F
:1003B800AF022F08A03E84000A30A0000030A10040
:1003C8002C08A3002B08A2000A128A1143230A1240
:1003D8008A11831203132108A5002008A4000A1219
:1003E8008A1179260A128A11831203132408303ECF
:1003F800831380000A30A0000030A1002C08A3005D
:100408002B08A2000A128A11DA220A128A11831210
:1004180003132108AC002008AB002B082C04031997
:10042800162A172A1C2A2F08031D1B2A1C2ADB2917
:100438002F080319202A212A472A28080319252AC0
:10044800262A472A0130AF022F08A03E84002D300B
:1004580083138000472A2F08A03E840083130008D6
:10046800F700F8017708A0007808A1002908A20081
:100478000A128A119E230A128A110130FF007F088E
:1004880083120313AF0720302F06031D4C2A4D2A71
:100498002F2A6F2A0130FF008312031326088400D5
:1004A8007F08831380076F2A2608840000088400C9
:1004B8000A128A1161250A128A11F700F8017708D1
:1004C800A0007808A1002908A2000A128A119E2318
:1004D8000A128A114E2A080083160313081088107E
:1004E800081188110812881200300A128A11B525DD
:1004F8000A128A114E30F700EB30F600F60B822A0A
:10050800F70B822A0530F700AB30F600F60B8A2A83
:10051800F70B8A2A8F2A03300A128A1132260A1206
:100528008A110D30F700FB30F600F60B992AF70B0D
:10053800992A9E2A03300A128A1132260A128A112F
:100548006330F600F60BA62AA92A03300A128A118C
:1005580032260A128A1102300A128A1132260A1227
:100568008A1102300A128A1132260A128A110830B8
:100578000A128A1132260A128A1100300A128A11C6
:1005880032260A128A110C300A128A1132260A12ED
:100598008A1100300A128A1132260A128A1106308C
:1005A8000A128A1132260A128A110800F3018312EC
:1005B8000313A11FE02AE12AE82AA009A109A00A39
:1005C8000319A10AF301F30AA31FEB2AEC2AF52A5F
:1005D800A209A309A20A0319A30A0130FF007F0890
:1005E800F306F401F501200821040319FC2AFD2A69
:1005F800342BF201F20A0B2B01300310A00DA10DD0
:10060800FF3E031D012B0130FF007F08F207A11FE9
:100618000E2B0F2B002B01300310F40DF50DFF3EB0
:10062800031D102B21082302031D1C2B2008220266
:10063800031C1F2B202B272B2008A2022108031C98
:10064800A303A302741401300310A10CA00CFF3EF5
:10065800031D282B0130F202031D332B342B0F2BE3
:1006680073080319382B392B3E2BF409F509F40AC2
:100678000319F50A7508A1007408A0000800F30121
:1006880083120313A31F492B4A2B512BA209A30939
:10069800A20A0319A30AF301F30AA11F542B552B2D
:1006A8005A2BA009A109A00A0319A10A20082104AC
:1006B80003195F2B602B8F2BF201F20A6E2B01308E
:1006C8000310A00DA10DFF3E031D642B0130FF0098
:1006D8007F08F207A11F712B722B632B21082302BD
:1006E800031D782B20082202031C7B2B7C2B822BDA
:1006F8002008A2022108031CA303A302013003104F
:10070800A10CA00CFF3E031D832B0130F202031D38
:100718008E2B8F2B722B73080319932B942B992BE9
:10072800A209A309A20A0319A30A2308A1002208FF
:10073800A00008008312031322080319A42BA52B79
:10074800AA2B2208031DA92BAA2BB12B20080A12B9
:100758008A11B0260A128A11F72B2208093E840052
:1007680083130008F200840A0008F3007208730477
:100778000319BF2BC02BDE2B2208093E840000087A
:10078800F200840A0008F3002208023E84000008F0
:10079800F400840A0008F5007508803AF60073082A
:1007A800803A7602031DDA2B720874020318DD2BD7
:1007B800DE2BF72B831203132208023E84008313D7
:1007C8000008F2002208840000087207F30073088A
:1007D8008400200880002208023E8400013080073F
:1007E800840A0318800A0800003083120313AB0040
:1007F8000030AA000030A9000030A8000A128A11AF
:100808009D260A128A11831203132308AF002208B7
:10081800AE002108AD002008AC002C08F2002D081D
:10082800F3002E08F4002F08F5002808F202290822
:10083800031C290F202C212CF3022A08031C2A0F41
:10084800262C272CF4022B08031C2B0F2C2C2D2CC8
:10085800F50275082702031D3B2C74082602031DA8
:100868003B2C73082502031D3B2C72082402031835
:100878003E2C3F2C022C0030E0000030DF0000301E
:10088800DE000030DD000800F70077080F39F500BA
:100898007708F039F6008312031308147608F3007A
:1008A80004300310F30CFF3E031D552C73080A1285
:1008B8008A11B5250A128A11831203138814053088
:1008C800F400AB30F300F30B672CF40B672C6C2CA3
:1008D8008312031388100530F400AB30F300F30BD8
:1008E800732CF40B732C782C75080A128A11B52511
:1008F8000A128A118312031388140530F400AB30EE
:10090800F300F30B852CF40B852C8A2C831203132C
:1009180088100530F400AB30F300F30B912CF40B86
:10092800912C962C080083120313A1002103031DA8
:100938009E2C9F2CBD2C20087F3EA4002408F60086
:1009480004300310F60CFF3E031DA52C7608A30007
:1009580024080F39A20023080A128A1132260A1223
:100968008A118312031322080A128A1132260A12E4
:100978008A110230831203132106031DC42CC52CCF
:10098800E32C2008BF3EA4002408F600043003101E
:10099800F60CFF3E031DCB2C7608A30024080F3964
:1009A800A20023080A128A1132260A128A11831217
:1009B800031322080A128A1132260A128A11080021
:1009C8008B130B1EE82CE92CFA2C8B1CEC2CED2C31
:1009D800FA2C003083120313E0000030DF000030EF
:1009E800DE000030DD008B108B17272D0B1DFD2C32
:1009F800FE2C222D8B1E012D022D222D0130FA07EF
:100A08000318FB0A0030FB0704307A067B04031D39
:100A18000E2D0F2D212D013083120313DD07003019
:100A280003180130DE07003003180130DF070030FB
:100A380003180130E007FA01FB010B112E30831275
:100A480003138100F82C71088A00700E8300FE0ED3
:100A58007E0E090083120313A7002508A0002708AB
:100A68000A128A1197240A128A1183120313A80101
:100A7800A901532D2808260784000A128A11612526
:100A88000A128A110A128A1148240A128A1101309C
:100A980083120313A8070318A90A0030A907280816
:100AA800260784000A128A1161250A128A11003A5F
:100AB800031D5F2D602D3E2D080005308A000408B7
:100AC800840A8207003420342034573445344C34A7
:100AD80043344F344D34453420345534533445343D
:100AE80052340034573461346B34653420347534EF
:100AF80070342034413479346D3461346E340034C8
:100B080043346F3475346E34743420343D342034B7
:100B1800003425346434003483120313A000A10187
:100B2800A201A92D21082007F800780884000008F0
:100B38000A128A1148240A128A11013083120313F7
:100B4800A1070318A20A0030A20721082007F8000D
:100B58007808840083130008031DB32DB42D962D47
:100B68000800F200721CB92DBA2DBE2D8312031392
:100B78000815C12D831203130811F21CC42DC52DAD
:100B8800C72D8815C82D8811721DCB2DCC2DCE2DC3
:100B98000816CF2D0812F21DD22DD32DD52D88166B
:100BA800D62D8812080083120313B2003008B30050
:100BB800E72D3330A6003108A70032080A128A113F
:100BC80081210A128A1183120313330884000A123E
:100BD8008A1161250A128A11003A031DF42DF52D98
:100BE800DD2DB001B101080083120313B8003530C0
:100BF800B7003808B900BB01BC01C201C301340801
:100C0800B0003730B10039300A128A11D7250A12DC
:100C18008A11831203133B083807F9007908840006
:100C28008313800108000A128A1170220A128A119D
:100C380000300A128A118C260A128A1101300A120F
:100C48008A114C260A128A118316031381130B1674
:100C58008B100117FF3086008B170800F5008312F0
:100C68000313081075080A128A11B5250A128A1189
:100C78008312031388140530F400AB30F300F30B30
:100C8800432EF40B432E482E8312031388100800BA
:100C9800F7007708F60004300310F60CFF3E031D3A
:100CA800502E76080F390A128A1132260A128A1132
:100CB80077080F390A128A1132260A128A11080097
:100CC800273083120313B4004508B6004408B50062
:100CD80046300A128A11F8250A128A1146300A1279
:100CE8008A1190250A128A11080083120313A51B82
:100CF8007E2E7F2E802E8B2E2409F4002509F500E8
:100D0800F40A0319F50A7408A4007508A500080078
:100D1800F30007307305F200831603130108F8394E
:100D2800720481008112011281118B160B118B172D
:100D38000800831203136008A3005F08A2005E087E
:100D4800A1005D08A000080064008001840A040670
:0A0D5800031900340406A92E080058
:00000001FF
