:060000000A128A11FC2F18
:100CC000FD01FB1F642E652E6C2EFA09FB09FA0A42
:100CD0000319FB0AFD01FD0AF91F6F2E702E752EF8
:100CE000F809F909F80A0319F90A780879040319C7
:100CF0007A2E7B2EAA2EFC01FC0A892E01300310CD
:100D0000F80DF90DFF3E031D7F2E0130FF007F0817
:100D1000FC07F91F8C2E8D2E7E2E79087B02031D79
:100D2000932E78087A02031C962E972E9D2E780813
:100D3000FA027908031CFB03FB0201300310F90CD3
:100D4000F80CFF3E031D9E2E0130FC02031DA92E50
:100D5000AA2E8D2E7D080319AE2EAF2EB42EFA09C1
:100D6000FB09FA0A0319FB0A7B08F9007A08F80064
:100D70000800F501F11FBD2EBE2EC52EF009F109A8
:100D8000F00A0319F10AF501F50AF31FC82EC92E5E
:100D9000D22EF209F309F20A0319F30A0130FF0017
:100DA0007F08F506F601F701700871040319D92EC2
:100DB000DA2E112FF401F40AE82E01300310F00DA1
:100DC000F10DFF3E031DDE2E0130FF007F08F4070A
:100DD000F11FEB2EEC2EDD2E01300310F60DF70D7A
:100DE000FF3E031DED2E71087302031DF92E7008DE
:100DF0007202031CFC2EFD2E042F7008F2027108F3
:100E0000031CF303F302761401300310F10CF00C11
:100E1000FF3E031D052F0130F402031D102F112F7B
:100E2000EC2E75080319152F162F1B2FF609F7093D
:100E3000F60A0319F70A7708F1007608F0000800AF
:100E400083120313A301A4018316031387018801EE
:100E500083120313870188010B3083120313A2004E
:100E60002630A1005D30A000A00B342FA10B342F41
:100E7000A20B342FEA2F0A30F8000030F900831259
:100E800003132408FB002308FA000A128A116026C3
:100E90000A128A117808831203138700F73088003A
:100EA0004E3083120313A100EA30A000A00B562F8E
:100EB000A10B562F00000A30F8000030F9000A306C
:100EC000F0000030F100831203132408F30023081C
:100ED000F2000A128A11B9260A128A117108FB005F
:100EE0007008FA000A128A1160260A128A1178081C
:100EF000831203138700FB3088004E3083120313E4
:100F0000A100EA30A000A00B832FA10B832F0000CB
:100F10000A30F8000030F9006430F0000030F100D1
:100F2000831203132408F3002308F2000A128A1123
:100F3000B9260A128A117108FB007008FA000A1219
:100F40008A1160260A128A11780883120313870017
:100F5000FD3088004E3083120313A100EA30A00058
:100F6000A00BB02FA10BB02F00000A30F80000300A
:100F7000F900E830F0000330F10083120313240875
:100F8000F3002308F2000A128A11B9260A128A1104
:100F90007108FB007008FA000A128A1160260A1212
:100FA0008A117808831203138700FE3088004E30C0
:100FB00083120313A100EA30A000A00BDD2FA10BC8
:100FC000DD2F0000013083120313A3070318A40AC6
:100FD0000030A407831203132408803AFF00A730CF
:100FE0007F02031DF52F10302302031CF82FF92F69
:100FF0003B2F0A128A11002883010A128A11202F1E
:00000001FF
