:100000000A128A11FC2F00308A000408840A820731
:10001000003445346E3474346534723420347434AE
:100020006834653420347034613473347334773415
:100030006F34723464340034573452344F344E3495
:1000400047342034503441345334533457344F34CC
:10005000523444340034573445344C3443344F34F0
:100060004D344534203455345334453452340034FF
:100070004D346F34683461346D3465346434003425
:0C008000413479346D3461346E34003446
:10086000F60076080A128A1112250A128A11080067
:10087000F030831603138600FF30831203138600C3
:100880008316031301087F3981000800F5007508FD
:10089000F40004300310F40CFF3E031D4A2C7408CE
:1008A0000F390A128A115E240A128A1175080F394B
:1008B0000A128A115E240A128A110800F3008312B8
:1008C0000313081073080A128A1178240A128A1175
:1008D0008312031388140530F200AB30F100F10BE2
:1008E0006F2CF20B6F2C742C8312031388100800EA
:1008F000F000701C7C2C7D2C812C831203130815B6
:10090000842C831203130811F01C872C882C8A2C4A
:1009100088158B2C8811701D8E2C8F2C912C08160D
:10092000922C0812F01D952C962C982C8816992C38
:100930008812080083120313A0007A08F40020082C
:100940000A128A11CD240A128A1183120313A101FB
:10095000A201BF2C21087B0784000A128A11032000
:100960000A128A110A128A1112250A128A110130FA
:1009700083120313A1070318A20A0030A20721085B
:100980007B0784000A128A1103200A128A11003A96
:10099000031DCB2CCC2CAA2C0800F6007603031DDB
:1009A000D22CD32CEF2C74087F3EF9007908F50087
:1009B00004300310F50CFF3E031DD92C7508F80018
:1009C00079080F39F70078080A128A115E240A1292
:1009D0008A1177080A128A115E240A128A110230DB
:1009E0007606031DF42CF52C112D7408BF3EF9007A
:1009F0007908F50004300310F50CFF3E031DFB2CB5
:100A00007508F80079080F39F70078080A128A117A
:100A10005E240A128A1177080A128A115E240A12C9
:100A20008A110800F50075080F39F3007508F039D0
:100A3000F4008312031308147408F1000430031047
:100A4000F10CFF3E031D1F2D71080A128A11782434
:100A50000A128A118312031388140530F200AB3096
:100A6000F100F10B312DF20B312D362D83120313D2
:100A700088100530F200AB30F100F10B3D2DF20B88
:100A80003D2D422D73080A128A1178240A128A1108
:100A90008312031388140530F200AB30F100F10B20
:100AA0004F2DF20B4F2D542D831203138810053058
:100AB000F200AB30F100F10B5B2DF20B5B2D602DE2
:100AC00008008316031308108810081188110812F3
:100AD000881200300A128A1178240A128A114E30C4
:100AE000F500EB30F400F40B732DF50B732D05308E
:100AF000F500AB30F400F40B7B2DF50B7B2D802D36
:100B000003300A128A115E240A128A110D30F50090
:100B1000FB30F400F40B8A2DF50B8A2D8F2D03305A
:100B20000A128A115E240A128A116330F400F40B4F
:100B3000972D9A2D03300A128A115E240A128A1107
:100B400002300A128A115E240A128A1102300A1235
:100B50008A115E240A128A1108300A128A115E2450
:100B60000A128A1100300A128A115E240A128A11AE
:100B70000C300A128A115E240A128A1100300A12FD
:100B80008A115E240A128A1106300A128A115E2422
:100B90000A128A11080083120313A601A70101306B
:100BA0000A128A1146240A128A1102300A128A1184
:100BB00046240A128A110C300A128A1146240A129B
:100BC0008A11FA01FA0A0130FB0001300A128A1177
:100BD0009A240A128A11F401F40A02300A128A11C4
:100BE000CD240A128A1183120313A801A9018312CA
:100BF0000313AA01032E0A128A1152260A128A111D
:100C000083120313AA002A080319072E082EFB2DAE
:100C10002A080A128A1130240A128A118312031335
:100C20002808313EA30029080318013E003EA40015
:100C30002A082306240403191E2E1F2E252E0130F8
:100C4000A6070318A70A0030A7070130A807031852
:100C5000A90A0030A9072908803AFF0080307F02E6
:100C6000031D342E04302802031C372E382EF72D96
:100C7000033083120313A5000830A4007630A300CC
:100C8000A30B402EA40B402EA50B402E0000831278
:100C900003132608270403194E2E502E0130512E1F
:100CA00000300800FF308312031386000608FE3967
:100CB0008600061A5C2E5D2E632E061E602E612EA7
:100CC0005D2E3730092F861A662E672E6D2E861EF2
:100CD0006A2E6B2E672E3830092F061B702E712E50
:100CE000772E061F742E752E712E3930092F861B14
:100CF0007A2E7B2E812E861F7E2E7F2E7B2E2F30EE
:100D0000092FFF3086000608FD398600061A892E55
:100D10008A2E902E061E8D2E8E2E8A2E3430092F6E
:100D2000861A932E942E9A2E861E972E982E942EE7
:100D30003530092F061B9D2E9E2EA42E061FA12E98
:100D4000A22E9E2E3630092F861BA72EA82EAE2E41
:100D5000861FAB2EAC2EA82E2A30092FFF3086001E
:100D60000608FB398600061AB62EB72EBD2E061EC3
:100D7000BA2EBB2EB72E3130092F861AC02EC12EA7
:100D8000C72E861EC42EC52EC12E3230092F061B3B
:100D9000CA2ECB2ED12E061FCE2ECF2ECB2E3330E9
:100DA000092F861BD42ED52EDB2E861FD82ED92EAA
:100DB000D52E2D30092FFF3086000608F739860022
:100DC000061AE32EE42EEA2E061EE72EE82EE42E67
:100DD0006330092F861AED2EEE2EF42E861EF12E8C
:100DE000F22EEE2E3030092F061BF72EF82EFE2E97
:100DF000061FFB2EFC2EF82E3D30092F861B012FDF
:100E0000022F082F861F052F062F022F2B30092FA8
:100E1000003008000A128A1161250A128A110A128A
:100E20008A1138240A128A1101300A128A114624C2
:100E30000A128A1102300A128A1146240A128A11F1
:100E40000C300A128A1146240A128A11FA01FA0A8F
:100E50002330FB0001300A128A119A240A128A11E7
:100E6000153083120313AD004B30AC00BD30AB0026
:100E7000AB0B382FAC0B382FAD0B382F3F2F0A128E
:100E80008A11CB250A128A1183120313AE002E0396
:100E9000031D4B2F4C2F4D2F782F01300A128A1132
:100EA00046240A128A1102300A128A1146240A12B2
:100EB0008A110C300A128A1146240A128A11FA0188
:100EC000FA0A1430FB0001300A128A119A240A121D
:100ED0008A11103083120313AD003930AC000D308D
:100EE000AB00AB0B712FAC0B712FAD0B712F3F2FE4
:100EF00001300A128A1146240A128A1102300A129B
:100F00008A1146240A128A110C300A128A114624C8
:100F10000A128A11FA01FA0A3830FB0001300A126B
:100F20008A119A240A128A11FA01FA0A3030FB0057
:100F300002300A128A119A240A128A1183120313A8
:100F4000AF01B0011C300A128A1146240A128A111C
:100F5000043083120313AD000C30AC003330AB000F
:100F6000AB0BB02FAC0BB02FAD0BB02F01308312F9
:100F70000313AF070318B00A0030B0073008803AF7
:100F8000FF0080307F02031DC72F08302F02031C93
:100F9000CA2FCB2FA22F83120313AF01B001183039
:100FA0000A128A1146240A128A110430831203138A
:100FB000AD000C30AC003330AB00AB0BDD2FAC0B15
:100FC000DD2FAD0BDD2F013083120313AF070318A4
:100FD000B00A0030B0073008803AFF0080307F024E
:100FE000031DF42F08302F02031CF72FF82FCF2FEB
:100FF0009E2F0A128A11002883010A128A110A2FD1
:00000001FF
