:060000000A128A11FC2F18
:100B6200323083120313A300C62D65300A128A1194
:100B7200EC260A128A1167300A128A1174270A12A5
:100B82008A11013083120313A3022308031DCA2D05
:100B9200CB2DB62D00300A128A11EC260A128A11C8
:100BA20000300A128A1174270A128A110800FF30D3
:100BB2008316031386008113870188010A128A11A2
:100BC200B1250A128A1183120313A401A50183120B
:100BD20003130618ED2DEE2DF62D0230FF007F08CF
:100BE200A407061CF52DF62DF22D8618F92DFA2DE7
:100BF200022E0330FF007F08A407861C012E022E5E
:100C0200FE2D061B052E062E0E2E0230FF007F083B
:100C1200A507061F0D2E0E2E0A2E861B112E122E32
:100C22001A2E0330FF007F08A507861F192E1A2EE1
:100C3200162E24080A128A11EC260A128A1183122D
:100C4200031325080A128A1174270A128A11E82D41
:100C52000A128A110028FD01FB1F302E312E382E78
:100C6200FA09FB09FA0A0319FB0AFD01FD0AF91F39
:100C72003B2E3C2E412EF809F909F80A0319F90A0C
:100C8200780879040319462E472E762EFC01FC0AB9
:100C9200552E01300310F80DF90DFF3E031D4B2EAA
:100CA2000130FF007F08FC07F91F582E592E4A2EEB
:100CB20079087B02031D5F2E78087A02031C622EDC
:100CC200632E692E7808FA027908031CFB03FB02E3
:100CD20001300310F90CF80CFF3E031D6A2E01309F
:100CE200FC02031D752E762E592E7D0803197A2ECD
:100CF2007B2E802EFA09FB09FA0A0319FB0A7B08EC
:100D0200F9007A08F8000800F501F11F892E8A2EF1
:100D1200912EF009F109F00A0319F10AF501F50A19
:100D2200F31F942E952E9E2EF209F309F20A03194F
:100D3200F30A0130FF007F08F506F601F70170089B
:100D420071040319A52EA62EDD2EF401F40AB42E89
:100D520001300310F00DF10DFF3E031DAA2E0130EC
:100D6200FF007F08F407F11FB72EB82EA92E01301D
:100D72000310F60DF70DFF3E031DB92E7108730225
:100D8200031DC52E70087202031CC82EC92ED02E58
:100D92007008F2027108031CF303F30276140130A7
:100DA2000310F10CF00CFF3E031DD12E0130F402B2
:100DB200031DDC2EDD2EB82E75080319E12EE22E5E
:100DC200E72EF609F709F60A0319F70A7708F10080
:100DD2007608F000080083120313A2000A30F8001C
:100DE2000030F9002208A000A1012008FA00210821
:100DF200FB000A128A112C260A128A117808831221
:100E0200031387008717071387121A3083120313FD
:100E1200A100F730A000A00B0C2FA10B0C2F112F5B
:100E22000A30F8000030F9000A30F0000030F1001A
:100E3200831203132208A000A1012008F200210856
:100E4200F3000A128A1185260A128A117108FB0020
:100E52007008FA000A128A112C260A128A117808DE
:100E62008312031387008713071787121A3083121E
:100E72000313A100F730A000A00B3D2FA10B3D2FC3
:100E8200422F0A30F8000030F9006430F0000030E0
:100E9200F100831203132208A000A1012008F2002E
:100EA2002108F3000A128A1185260A128A11710892
:100EB200FB007008FA000A128A112C260A128A1103
:100EC20078088312031387008713071387161A30D3
:100ED20083120313A100F730A000A00B6E2FA10B09
:100EE2006E2F732F080083120313A2000A30F8003A
:100EF2000030F9002208A000A1012008FA00210810
:100F0200FB000A128A112C260A128A11780883120F
:100F1200031388008817081388121A3083120313E8
:100F2200A100F730A000A00B942FA10B942F992FB2
:100F32000A30F8000030F9000A30F0000030F10009
:100F4200831203132208A000A1012008F200210845
:100F5200F3000A128A1185260A128A117108FB000F
:100F62007008FA000A128A112C260A128A117808CD
:100F72008312031388008813081788121A30831209
:100F82000313A100F730A000A00BC52FA10BC52FA2
:100F9200CA2F0A30F8000030F9006430F000003047
:100FA200F100831203132208A000A1012008F2001D
:100FB2002108F3000A128A1185260A128A11710881
:100FC200FB007008FA000A128A112C260A128A11F2
:100FD20078088312031388008813081388161A30BE
:100FE20083120313A100F730A000A00BF62FA10B70
:0E0FF200F62FFB2F080083010A128A11D82D5A
:00000001FF
