:060000000A128A110C280F
:10000800FE00030EF0000A08F1000A128A15302DCE
:100018000A128A110F288313AC30FD000C30FE0041
:100028002130FF00A03084000A128A1550240A12D9
:100038008A116830FD000C30FE000930FF00633083
:1000480084000A128A1550240A128A11D501D60191
:10005800D701D801D901DA01DB01DC01DD01DE01BC
:10006800DF01E001E101E201FA01FB0183010A126B
:100078008A113E2800300A128A153B240A128A1176
:100088000A128A11DE260A128A110A128A152D24EA
:100098000A128A113F308400A03083120313AE0085
:1000A8000408AF000C30B0002E0884008313000849
:1000B800B100AE0A2F08840031088000AF0AB00BE7
:1000C800582801300A128A155F240A128A11B230A0
:1000D80083120313DD000730DE00E201E20AE101CA
:1000E800E10AE001DF01A401A40A1230A5000130F1
:1000F8000A128A15FD240A128A110030F90000300C
:10010800F8000730F700D030F6000A128A11B0273D
:100118000A128A1101300A128A155F240A128A11FA
:1001280083120313A401A40A0130A50001300A12A6
:100138008A15FD240A128A1183120313A401A40A42
:100148001F30A50002300A128A15FD240A128A11EE
:10015800343083120313CD000730F60002300A1240
:100168008A15F4250A128A1183120313D101D10AC0
:10017800D201D101C7280A128A1126260A128A1129
:1001880083120313D10051080319CB28CC28BF28A8
:100198000A128A1126260A128A118312031351069B
:1001A8000319D728D828CC283D305106031DDD284F
:1001B800DE28E62852084D07AE002E088400831377
:1001C8008001002952084D07AE002E08840051080E
:1001D8008313800051080A128A150E240A128A1104
:1001E8000130FF007F0883120313D2070A3052023E
:1001F800031CFF280029BD280A128A152D240A127B
:100208008A11013083120313D20201300A128A15AF
:100218005F240A128A11003083120313D8000030B9
:10022800D7000030D6000030D5003430CE00452944
:100238005208A5004E08840000080A128A15652590
:100248000A128A11831203132508D50726080311F9
:100258000318013E03193129D6072708031103188B
:10026800013E03193829D707280803110318013E4E
:1002780003193F29D8070130D2020130FF007F0857
:10028800CE074E08840083130008031D4C294D290E
:100298001C29C7290330831203135D05AE00003003
:1002A8005E05AF002E082F04031D5B295C29A329D6
:1002B8006430F2000030F3005E08F5005D08F400D9
:1002C8000A128A15E6260A128A1172087304031D97
:1002D8006E296F2984299030F2000130F3008312CF
:1002E80003135E08F5005D08F4000A128A15E62675
:1002F8000A128A1172087304031D83298429A32909
:10030800003083120313AE008530AF00E230B00036
:100318000130B1002E08D5022F08031C2F0F952994
:100328009629D6023008031C300F9B299C29D70236
:100338003108031C310FA129A229D802C129803014
:1003480083120313AE003330AF00E130B000013048
:10035800B1002E08D5022F08031C2F0FB429B52988
:10036800D6023008031C300FBA29BB29D70231083E
:10037800031C310FC029C129D8020130DD07031839
:10038800DE0A0030DE0703305D05AE0000305E0592
:10039800AF002E082F04031DD229D329112A643057
:1003A800F2000030F3005E08F5005D08F4000A1260
:1003B8008A15E6260A128A1172087304031DE529B4
:1003C800E629FB299030F2000130F3008312031371
:1003D8005E08F5005D08F4000A128A15E6260A127E
:1003E8008A1172087304031DFA29FB29112A0130A6
:1003F800831203135802031D0D2AE2305702031D0E
:100408000D2A85305602031D0D2A00305502031DA2
:100418000D2A0318102A112A4E29013083120313BA
:100428005802031D232AE1305702031D232A3330C3
:100438005602031D232A80305502031D232A031C5C
:10044800262A272A5D2A0330831203135D05AE008E
:1004580000305E05AF002E082F04031D342A352A0C
:100468004E296430F2000030F3005E08F5005D08A4
:10047800F4000A128A15E6260A128A117208730411
:10048800031D472A482A5D2A9030F2000130F30004
:10049800831203135E08F5005D08F4000A128A153A
:1004A800E6260A128A1172087304031D5C2A5D2A63
:1004B8004E29831203135808031D722A013057026C
:1004C800031D6E2A51305602031D6E2A80305502D4
:1004D800031D6E2A031C712A722A5A2B0030F5005C
:1004E8000130F4005130F3008030F200831203131E
:1004F8005808F9005708F8005608F7005508F6009C
:100508000A128A1148270A128A11730883120313E0
:10051800CC007208CB00CF01D001D301D401D301A4
:10052800D401F92A53035404031D9B2A9C2AE42A64
:1005380003305D05AE0000305E05AF002E082F04C5
:10054800031DA72AA82AE42A6430F2000030F30029
:100558005E08F5005D08F4000A128A15E6260A12FC
:100568008A1172087304031DBA2ABB2AD02A903054
:10057800F2000130F300831203135E08F5005D08F2
:10058800F4000A128A15E6260A128A117208730400
:10059800031DCF2AD02AE42A8312031353083F3EAF
:1005A800840083130008013EAE00003003180130B8
:1005B800AF002E08CF070318D00A2F08D007F32A58
:1005C8008312031353083F3E840083130008AE00D0
:1005D800AF012E08CF070318D00A2F08D007013023
:1005E800D3070318D40A0030D4075408803AFF0010
:1005F80080307F02031D022B0B3053020318052B9A
:10060800062B292B8312031353083F3E84008313C0
:1006180000084F07AE0050080318500AAF002F0813
:10062800803AB0004C08803A3002031D1D2B4B085D
:100638002E020318202B212B292B831203134B087E
:100648004C04031D282B292B962A831203135308C5
:10065800013EE2004F08F2005008F3000030F31B9F
:10066800FF30F400F5000030F9000130F800513097
:10067800F7008030F6000A128A15AC250A128A1192
:10068800720883120313D5027308031C730F4D2BD2
:100698004E2BD6027408031C740F532B542BD7020D
:1006A8007508031C750F592B5A2BD8028312031394
:1006B8005808031D6F2B01305702031D6B2B513057
:1006C8005602031D6B2B80305502031D6B2B031C38
:1006D8006E2B6F2BAD2B0030F5000130F40051303C
:1006E800F3008030F200831203135808F90057080A
:1006F800F8005608F7005508F6000A128A1148272C
:100708000A128A11720883120313E1000130FF00F4
:100718007F08E1070030F5000130F4005130F300A4
:100728008030F2005808F9005708F8005608F7001A
:100738005508F6000A128A1590260A128A117508B9
:1007480083120313D8007408D7007308D600720800
:10075800D500831203135808031DC12B5708031D26
:10076800C12B0E305602031DBD2B10305502031D40
:10077800BD2B031CC02BC12BFB2B0030F500003018
:10078800F4000E30F3001030F200831203135808FF
:10079800F9005708F8005608F7005508F6000A123D
:1007A8008A1148270A128A11720883120313E0007B
:1007B8000030F5000030F4000E30F3001030F20085
:1007C8005808F9005708F8005608F7005508F600C9
:1007D8000A128A1590260A128A11750883120313C1
:1007E800D8007408D7007308D6007208D5008312A1
:1007F80003135808031D0E2C5708031D0E2C56080A
:10080800031D0E2C3C305502031D0A2C031C0D2C15
:100818000E2C582C0030F5000030F4000030F300A6
:100828003C30F200831203135808F9005708F80007
:100838005608F7005508F6000A128A1148270A12C6
:100848008A11720883120313DF005F08AE00AF013C
:100858002E08F2002F08F3003C30F4000030F500B9
:100868000A128A15D8240A128A11720883120313ED
:10087800B0007308B1000030B11BFF30B200B30004
:100888003008D5023108031C310F4B2C4C2CD602F2
:100898003208031C320F512C522CD7023308031C88
:1008A800330F572C582CD802F601F60A01300A12D9
:1008B8008A15F4250A128A11831203135E08A4000C
:1008C8005D08A3000430A5000030A6000A128A15AE
:1008D8003F270A128A112D300A128A150E240A128D
:1008E8008A11831203136208AE00AF012E08A30019
:1008F8002F08A4000230A5000030A6000A128A15AD
:100908003F270A128A112D300A128A150E240A125C
:100918008A11831203136108AE00AF012E08A300E9
:100928002F08A4000230A5000030A6000A128A157C
:100938003F270A128A11F601F60A02300A128A15AE
:10094800F4250A128A11831203136008AE00AF015E
:100958002E08A3002F08A4000230A5000030A6002E
:100968000A128A153F270A128A113A300A128A1582
:100978000E240A128A11831203135F08AE00AF0116
:100988002E08A3002F08A4000230A5000030A600FE
:100998000A128A153F270A128A113A300A128A1552
:1009A8000E240A128A11831203135508AE00AF01F0
:1009B8002E08A3002F08A4000230A5000030A600CE
:1009C8000A128A153F270A128A110030F9000030EE
:1009D800F8000330F700E830F6000A128A11B02751
:1009E8000A128A113B308312031355065604570422
:1009F8005804031D002D012D122E003083120313FD
:100A0800D8000030D7000030D6000030D5003B3089
:100A18005F06031D102D112D0D2EDF011730600606
:100A2800031D172D182D082EE00103305D05AE00BB
:100A380000305E05AF002E082F04031D242D252D40
:100A4800612D6430F2000030F3005E08F5005D08A7
:100A5800F4000A128A15E6260A128A11720873042B
:100A6800031D372D382D4D2D9030F2000130F30045
:100A7800831203135E08F5005D08F4000A128A1554
:100A8800E6260A128A1172087304031D4C2D4D2D97
:100A9800612D0230831203136206031D542D552D58
:100AA800612D1D306106031D5A2D5B2D612DE1015D
:100AB8000130FF007F08E207582C0330831203132C
:100AC8005D05AE0000305E05AF002E082F04031D43
:100AD8006E2D6F2DA82D6430F2000030F3005E08F3
:100AE800F5005D08F4000A128A15E6260A128A1132
:100AF80072087304031D812D822D972D9030F2000A
:100B08000130F300831203135E08F5005D08F4005A
:100B18000A128A15E6260A128A1172087304031D3E
:100B2800962D972DA82D0230831203136206031DFC
:100B38009E2D9F2DA82D1C306106031DA42DA52DCB
:100B4800A82D1D30E100582C0330831203135D05D6
:100B5800AE0000305E05AF002E082F04031DB52D32
:100B6800B62DEB2D6430F2000030F3005E08F5007E
:100B78005D08F4000A128A15E6260A128A1172081C
:100B88007304031DC82DC92DDE2D9030F2000130ED
:100B9800F300831203135E08F5005D08F4000A12DF
:100BA8008A15E6260A128A1172087304031DDD2DC0
:100BB800DE2DEB2D0230831203136206031DE52D93
:100BC800E62DEB2D0130FF007F08E107582C83123A
:100BD80003136208FF3E3F3E84008313000861024E
:100BE8000318F72DF82DF92DE62DE1010C306206DA
:100BF800031DFF2D002E5C2DE2010130DD070318D7
:100C0800DE0A0030DE07582C0130FF007F08E007BD
:100C1800582C0130FF007F08DF07582C0130831261
:100C28000313D507003003180130D6070030031826
:100C38000130D707003003180130D807582C0A12A2
:100C48008A110C28FF308312031386000608FE3928
:100C58008600061A302E312E372E061E342E352EDB
:100C6800312E3730DD2E861A3A2E3B2E412E861E27
:100C78003E2E3F2E3B2E3830DD2E061B442E452EB1
:100C88004B2E061F482E492E452E3930DD2E861B49
:100C98004E2E4F2E552E861F522E532E4F2E2F304E
:100CA800DD2EFF3086000608FD398600061A5D2E07
:100CB8005E2E642E061E612E622E5E2E3430DD2ED0
:100CC800861A672E682E6E2E861E6B2E6C2E682E48
:100CD8003530DD2E061B712E722E782E061F752ECE
:100CE800762E722E3630DD2E861B7B2E7C2E822EA3
:100CF800861F7F2E802E7C2E2A30DD2EFF30860028
:100D08000608FB398600061A8A2E8B2E912E061E9F
:100D18008E2E8F2E8B2E3130DD2E861A942E952E08
:100D28009B2E861E982E992E952E3230DD2E061B70
:100D38009E2E9F2EA52E061FA22EA32E9F2E333049
:100D4800DD2E861BA82EA92EAF2E861FAC2EAD2E0B
:100D5800A92E2D30DD2EFF3086000608F7398600D3
:100D6800061AB72EB82EBE2E061EBB2EBC2EB82EC7
:100D78006330DD2E861AC12EC22EC82E861EC52EC1
:100D8800C62EC22E3030DD2E061BCB2ECC2ED22EF8
:100D9800061FCF2ED02ECC2E3D30DD2E861BD52E15
:100DA800D62EDC2E861FD92EDA2ED62E2B30DD2E0F
:100DB80000300800831603130810881008118811E2
:100DC8000812881200300A128A1591240A128A1110
:100DD8004E30F700EB30F600F60BF02EF70BF02E46
:100DE8000530F700AB30F600F60BF82EF70BF82EAF
:100DF800FD2E03300A128A1577240A128A110D3043
:100E0800F700FB30F600F60B072FF70B072F0C2F18
:100E180003300A128A1577240A128A116330F60001
:100E2800F60B142F172F03300A128A1577240A128B
:100E38008A1102300A128A1577240A128A1102309E
:100E48000A128A1577240A128A1108300A128A159A
:100E580077240A128A1100300A128A1577240A1296
:100E68008A110C300A128A1577240A128A11003066
:100E78000A128A1577240A128A1106300A128A156C
:100E880077240A128A110800003083120313A40081
:100E98000030A3000030A2000030A10075087404DF
:100EA800730472040319592F5A2FA72FA501A50AF5
:100EB8006A2F0130A0000310F20DF30DF40DF50DAB
:100EC800A00B5F2F0130FF007F08A507F51F6D2FCE
:100ED8006E2F5D2F0130A0000310A10DA20DA30DF0
:100EE800A40DA00B702F75087902031D852F7408B7
:100EF8007802031D852F73087702031D852F72085A
:100F08007602031C882F892F982F7208F60273081F
:100F1800031C730FF7027408031C740FF80275089A
:100F2800031C750FF902211401300310F50CF40CA1
:100F3800F30CF20CFF3E031D992F0130A502031D8F
:100F4800A62FA72F6E2F2408F5002308F4002208E7
:100F5800F3002108F2000800003083120313A700F1
:100F68000030A6000030A5000030A4000A128A153F
:100F780016240A128A11750883120313AB00740829
:100F8800AA007308A9007208A8002808A000290868
:100F9800A1002A08A2002B08A3002408A002250803
:100FA800031C250FD82FD92FA1022608031C260FB2
:100FB800DE2FDF2FA2022708031C270FE42FE52FBF
:100FC800A30223087902031DF32F22087802031DC8
:100FD800F32F21087702031DF32F20087602031848
:100FE800F62FF72FBA2F0030DC000030DB0000307E
:100FF800DA000030D900080008308A000408840AA2
:1010080082070034543469346D3465345F344D34A8
:10101800613478345F34313430344434693467347B
:10102800693474340034573465346C3463346F3441
:101038006D34653420346E3461346D346534003475
:0E104800543479347034653420343D3400342F
:1018120005340034003400340034F80078080A1229
:101822008A1541260A128A150800831203135C08DE
:10183200F5005B08F4005A08F3005908F2000800AA
:101842001F341C341F341E341F341E341F341F3403
:101852001E341F341E341F34F030831603138600E7
:10186200FF308312031386008316031301087F39A6
:1018720081000800F30007307305F200831603139A
:101882000108F839720481008112011281118B164C
:101892000B118B1708007E088A007F0882000A124B
:1018A2008A154C240A128A158000840A04087D06CF
:1018B20003190034FF0A0319FE0A502CF7007708B7
:1018C200F60004300310F60CFF3E031D632C76086D
:1018D2000F390A128A1577240A128A1577080F39E6
:1018E2000A128A1577240A128A150800F500831253
:1018F2000313081075080A128A1591240A128A1510
:101902008312031388140530F400AB30F300F30B99
:10191200882CF40B882C8D2C83120313881008005A
:10192200F200721C952C962C9A2C83120313081524
:101932009D2C831203130811F21CA02CA12CA32CA2
:101942008815A42C8811721DA72CA82CAA2C081665
:10195200AB2C0812F21DAE2CAF2CB12C8816B22C77
:101962008812080083120313A000A101A201CC2C4B
:1019720021082007F8007808840000080A128A1556
:1019820041260A128A15013083120313A107031894
:10199200A20A0030A20721082007F8007808840074
:1019A20083130008031DD62CD72CB92C0800F6018E
:1019B200F701721CDD2CDE2CE42C7408F6070318E8
:1019C200F70A7508F70701300310F40DF50DFF3E15
:1019D200031DE52C01300310F30CF20CFF3E031D36
:1019E200EC2C72087304031DF72CF82CDA2C770800
:1019F200F3007608F200080083120313A6002408FD
:101A0200F60026080A128A15F4250A128A1583128C
:101A12000313A701A801222D2708250784000A1213
:101A22008A1500200A128A150A128A1541260A12FC
:101A32008A15013083120313A7070318A80A00307E
:101A4200A8072708250784000A128A1500200A120F
:101A52008A15003A031D2E2D2F2D0D2D08008B13F4
:101A62000B1D342D352D592D8B1E382D392D592D09
:101A72000130FA070318FB0A0030FB0704307A062C
:101A82007B04031D452D462D582D0130831203136F
:101A9200D907003003180130DA070030031801308B
:101AA200DB07003003180130DC07FA01FB010B11E0
:101AB2002E308312031381008B1771088A00700E77
:101AC2008300FE0E7E0E090083120313A90000306C
:101AD200AD000030AC000030AB000030AA00290895
:101AE200D03EAA00FF3003180030AB00AC01AB1BA4
:101AF200AC032C08AD009E2D0030F5000030F40040
:101B02000030F3000A30F2002D08F9002C08F8002A
:101B12002B08F7002A08F6000A128A15AC250A12C9
:101B22008A15750883120313AD007408AC0073089C
:101B3200AB007208AA000130A5022508031DA22DE0
:101B4200A32D7D2D2D08A8002C08A7002B08A60088
:101B52002A08A5000800003083120313A4000030F5
:101B6200A3000030A2000030A100721CB92DBA2DD2
:101B7200D12D7608A107770803110318013E031936
:101B8200C32DA207780803110318013E0319CA2DB9
:101B9200A307790803110318013E0319D12DA407E5
:101BA2000130A0000310F60DF70DF80DF90DA00B92
:101BB200D32D01300310F50CF40CF30CF20CFF3EA4
:101BC200031DDB2D7508740473047204031DEA2DD2
:101BD200EB2DB62D2408F5002308F4002208F300AB
:101BE2002108F200080083120313A0002003031D42
:101BF200FB2DFC2D1A2E76087F3EA3002308F7004A
:101C020004300310F70CFF3E031D022E7708A200DA
:101C120023080F39A10022080A128A1577240A1212
:101C22008A158312031321080A128A1577240A12CD
:101C32008A150230831203132006031D212E222E41
:101C4200402E7608BF3EA3002308F700043003109D
:101C5200F70CFF3E031D282E7708A20023080F3938
:101C6200A10022080A128A1577240A128A15831201
:101C7200031321080A128A1577240A128A1508000A
:101C8200F70077080F39F5007708F039F60083126C
:101C9200031308147608F30004300310F30CFF3E1C
:101CA200031D4E2E73080A128A1591240A128A15F0
:101CB2008312031388140530F400AB30F300F30BE6
:101CC200602EF40B602E652E8312031388100530EC
:101CD200F400AB30F300F30B6C2EF40B6C2E712E70
:101CE20075080A128A1591240A128A15831203139F
:101CF20088140530F400AB30F300F30B7E2EF40BA6
:101D02007E2E832E8312031388100530F400AB302D
:101D1200F300F30B8A2EF40B8A2E8F2E080075081F
:101D22007404730472040319972E982EDD2E831205
:101D32000313A101A10AAA2E0130A0000310F20D83
:101D4200F30DF40DF50DA00B9F2E0130FF007F085F
:101D5200A107F51FAD2EAE2E9D2E75087902031D2B
:101D6200BC2E74087802031DBC2E73087702031D73
:101D7200BC2E72087602031CBF2EC02ECE2E720815
:101D8200F6027308031C730FF7027408031C740F26
:101D9200F8027508031C750FF90201300310F50CE7
:101DA200F40CF30CF20CFF3E031DCF2E0130A10206
:101DB200031DDC2EDD2EAE2E7908F5007808F40026
:101DC2007708F3007608F2000800F701F51FEA2E03
:101DD200EB2EF22EF409F509F40A0319F50AF701BC
:101DE200F70AF31FF52EF62EFB2EF209F309F20A7B
:101DF2000319F30A720873040319002F012F302FFD
:101E0200F601F60A0F2F01300310F20DF30DFF3E1B
:101E1200031D052F0130FF007F08F607F31F122F65
:101E2200132F042F73087502031D192F72087402F1
:101E3200031C1C2F1D2F232F7208F4027308031C8E
:101E4200F503F50201300310F30CF20CFF3E031D03
:101E5200242F0130F602031D2F2F302F132F770866
:101E62000319342F352F3A2FF409F509F40A03190F
:101E7200F50A7508F3007408F200080027308400A0
:101E820083120313630883138000840A64088000AA
:101E9200840A65088000840A66088000840A67084C
:101EA2008000043025062604031D582F592F5C2F6D
:101EB2000330AC008A2FAC01AC0A8A2F2C08273ED3
:101EC20084000A30F2000030F3002408F5002308F1
:101ED200F4000A128A15E6260A128A157208303EA2
:101EE200831380000A30F2000030F30083120313E0
:101EF2002408F5002308F4000A128A1599270A1209
:101F02008A15730883120313A4007208A300013018
:101F1200AC022C08031D8E2F8F2F5F2F2308303E1B
:101F2200A70027300A128A15B3240A128A1508005C
:101F3200F701F31F9D2F9E2FA52FF209F309F20A35
:101F42000319F30AF701F70AF51FA82FA92FB22FD9
:101F5200F409F509F40A0319F50A0130FF007F08B4
:101F6200F706F801F901720873040319B92FBA2FA1
:101F7200F12FF601F60AC82F01300310F20DF30D0E
:101F8200FF3E031DBE2F0130FF007F08F607F31F3F
:101F9200CB2FCC2FBD2F01300310F80DF90DFF3ED2
:101FA200031DCD2F73087502031DD92F7208740209
:101FB200031CDC2FDD2FE42F7208F4027308031CCC
:101FC200F503F502781401300310F30CF20CFF3E16
:101FD200031DE52F0130F602031DF02FF12FCC2F48
:101FE20077080319F52FF62FFB2FF809F909F80ADC
:0E1FF2000319F90A7908F3007808F2000800D4
:00000001FF
