:060000000A128A11F62F1E
:100C240083160313811338308600073083120313AD
:100C340086008316031388018312031388010800B6
:100C44000030FC000030FB000030FA000030F900F6
:100C5400701C2D2E2E2E452E7408F90775080311CD
:100C64000318013E0319372EFA07760803110318F7
:100C7400013E03193E2EFB07770803110318013EBA
:100C84000319452EFC070130F8000310F40DF50D8F
:100C9400F60DF70DF80B472E01300310F30CF20C90
:100CA400F10CF00CFF3E031D4F2E73087204710407
:100CB4007004031D5E2E5F2E2A2E7C08F3007B0831
:100CC400F2007A08F1007908F0000800013083127C
:100CD4000313A2000030A3000030A4000030A500DC
:100CE4003808F3003708F2003608F1003508F00040
:100CF4004C30F7009530F6007F30F5002D30F400CD
:100D04000A128A1122260A128A1170088312031306
:100D1400A20771080318710F902E912EA307720871
:100D24000318720F962E972EA40773080318730ADC
:100D3400A5072508B8002408B7002308B600220830
:100D4400B5003508A2003608A3003708A400380807
:100D5400A50011300310A50CA40CA30CA20CFF3E9B
:100D6400031DAC2E2308A1002208A0000800F001F6
:100D7400032F073083120313860006108619C32E2F
:100D8400C42EC72EF001F00AD42E061ACA2ECB2E7A
:100D9400CE2E0230F000D42E861AD12ED22ED42E8E
:100DA4000330F0000730860086108619DA2EDB2E19
:100DB400DE2E0430F000EB2E061AE12EE22EE52E94
:100DC4000530F000EB2E861AE82EE92EEB2E0630C5
:100DD400F0000730860006118619F12EF22EF52E4A
:100DE4000730F000032F061AF82EF92EFC2E0830D7
:100DF400F000032F861AFF2E002F032F0930F00076
:100E0400032F70080319072F082FBB2E07308312F6
:100E1400031386007008080083120313AB01A91F93
:100E2400142F152F1C2FA809A909A80A0319A90A08
:100E3400AB01AB0AA71F1F2F202F252FA609A70937
:100E4400A60A0319A70A2608270403192A2F2B2FF9
:100E54005A2FAA01AA0A392F01300310A60DA70D93
:100E6400FF3E031D2F2F0130FF007F08AA07A71F95
:100E74003C2F3D2F2E2F27082902031D432F260820
:100E84002802031C462F472F4D2F2608A8022708A7
:100E9400031CA903A90201300310A70CA60CFF3EF2
:100EA400031D4E2F0130AA02031D592F5A2F3D2F27
:100EB4002B0803195E2F5F2F642FA809A909A80A1C
:100EC4000319A90A2908A7002808A60008000A127D
:100ED4008A1112260A128A1183120313B101B20174
:100EE400093083120313A6000030A7000A128A11E6
:100EF40068260A128A11831203132108A900200804
:100F0400A8000A128A110E270A128A1183120313E7
:100F14002608013EB30027080318013E003EB40032
:100F24000A128A11B9260A128A1183120313AC0019
:100F3400AD012C08AF002D08B0000B308312031351
:100F4400AE002630AD005D30AC00AC0BA72FAD0B6E
:100F5400A72FAE0BA72F8312031330083406031DEB
:100F6400B52F2F083306031DB82FB92FBC2F8801C6
:100F74008817BB2F3319BF2FC32F831203130814F1
:100F8400C62F831203130810B318C92FCD2F831251
:100F940003138814D02F8312031388103318D32F0C
:100FA400D72F831203130815DA2F831203130811A2
:100FB4000130B1070318B20A0030B2073208803A90
:100FC400FF0080307F02031DE92F03303102031C30
:100FD400EC2FED2F722F07308312031388000817AC
:100FE400F22F0A128A11002883120313B501B601E5
:0C0FF400B701B80183010A128A11692FAD
:00000001FF
