:060000000A128A11EB2F29
:1000D600F60076080A128A11C9210A128A11080046
:1000E60064008001840A0406031900340406742897
:1000F600F030831603138600FF3083120313860045
:100106008316031301087F3981000800FC007A0872
:10011600F4007C080A128A1138210A128A117B0817
:100126000A128A11C9210A128A110800F5007508F7
:10013600F40004300310F40CFF3E031D9D287408E0
:100146000F390A128A11B1200A128A1175080F395D
:100156000A128A11B1200A128A110800F3008312CA
:100166000313081073080A128A11CB200A128A1187
:100176008312031388140530F200AB30F100F10B43
:10018600C228F20BC228C72883120313881008005E
:10019600F000701CCF28D028D4288312031308152A
:1001A600D728831203130811F01CDA28DB28DD2870
:1001B6008815DE288811701DE128E228E428081633
:1001C600E5280812F01DE828E928EB288816EC280F
:1001D60088120800F401F501701CF228F328F928AA
:1001E6007208F4070318F50A7308F50701300310BF
:1001F600F20DF30DFF3E031DFA2801300310F10C3A
:10020600F00CFF3E031D012970087104031D0C2923
:100216000D29EF287508F1007408F0000800831214
:100226000313BD00BB01BC013D080A128A11022757
:100236000A128A11831203132D08BB070318BC0A7E
:100246002E08BC073D080A128A11FB240A128A11DD
:10025600831203132008BB070318BC0A2108BC0736
:100266003C08BA003B08B9000800F6007603031DF7
:100276003D293E295A2974087F3EF9007908F50080
:1002860004300310F50CFF3E031D44297508F800E1
:1002960079080F39F70078080A128A11B1200A1274
:1002A6008A1177080A128A11B1200A128A110230BD
:1002B6007606031D5F2960297C297408BF3EF90074
:1002C6007908F50004300310F50CFF3E031D66297E
:1002D6007508F80079080F39F70078080A128A11AC
:1002E600B1200A128A1177080A128A11B1200A125D
:1002F6008A110800F3007008F20083290130F00229
:100306007008031987298829C22970087307F10024
:10031600710884002B30831300060319932994294E
:10032600C22970087307F100710884002D30000699
:1003360003199E299F29C22970087307F1007108C5
:1003460084002A3000060319A929AA29C22970089F
:100356007307F100710884002F300006031DB429CD
:10036600B5298129C22970087307F1007108840034
:100376007230831380000130FF007F08F007700899
:100386007206031DC729C829B6290800F500750895
:100396000F39F3007508F039F400831203130814BB
:1003A6007408F10004300310F10CFF3E031DD6293A
:1003B60071080A128A11CB200A128A1183120313BA
:1003C60088140530F200AB30F100F10BE829F20B8E
:1003D600E829ED298312031388100530F200AB30AB
:1003E600F100F10BF429F20BF429F92973080A122A
:1003F6008A11CB200A128A1183120313881405303E
:10040600F200AB30F100F10B062AF20B062A0B2A9A
:100416008312031388100530F200AB30F100F10BA4
:10042600122AF20B122A172A0800F501F31F1C2ABA
:100436001D2A242AF209F309F20A0319F30AF5011F
:10044600F50AF11F272A282A2D2AF009F109F00AB0
:100456000319F10A700871040319322A332A622A31
:10046600F401F40A412A01300310F00DF10DFF3EAC
:10047600031D372A0130FF007F08F407F11F442AC5
:10048600452A362A71087302031D4B2A7008720228
:10049600031C4E2A4F2A552A7008F2027108031CC3
:1004A600F303F30201300310F10CF00CFF3E031DC1
:1004B600562A0130F402031D612A622A452A75086C
:1004C6000319662A672A6C2AF209F309F20A031944
:1004D600F30A7308F1007208F00008000230831274
:1004E6000313B0001030B100AF01AE1F7B2A7C2A87
:1004F600C32AFF30F000FF30F1002E08F3002D086C
:10050600F2000A128A11ED200A128A11710883126A
:100516000313AE007008AD00AF01AF0AC32A31085D
:10052600FA000A30F0000030F1002E08F3002D0822
:10053600F2000A128A1118220A128A117008303E35
:10054600FB008312031330080A128A1189200A124B
:100556008A11013083120313B1020A30A50000305C
:10056600A6002E08A8002D08A7000A128A11D92273
:100576000A128A11831203132608AE002508AD005D
:100586002D082E04031DC82AC92A922A2F03031DEB
:10059600CD2ACE2AD82A3108FA002D30FB003008A1
:1005A6000A128A1189200A128A110800831203137B
:1005B600AA01A61FDF2AE02AE72AA509A609A50A95
:1005C6000319A60AAA01AA0AA81FEA2AEB2AF42AEC
:1005D600A709A809A70A0319A80A0130FF007F087E
:1005E600AA06AB01AC01250826040319FB2AFC2A3E
:1005F600332BA901A90A0A2B01300310A50DA60D5C
:10060600FF3E031D002B0130FF007F08A907A61F30
:100616000D2B0E2BFF2A01300310AB0DAC0DFF3E48
:10062600031D0F2B26082802031D1B2B2508270256
:10063600031C1E2B1F2B262B2508A7022608031C8E
:10064600A803A8022B1401300310A60CA50CFF3E2C
:10065600031D272B0130A902031D322B332B0E2B32
:100666002A080319372B382B3D2BAB09AC09AB0AEB
:100676000319AC0A2C08A6002B08A5000800831253
:100686000313A400482B0130A002200803194C2BA9
:100696004D2B7A2B20082407A200220884002B3039
:1006A600831300060319582B592B7A2B200824078D
:1006B600A200220884002D3000060319632B642B48
:1006C6007A2B20082407A200220884002A3000067C
:1006D60003196E2B6F2B7A2B20082407A200220801
:1006E60084002F300006031D792B7A2B462B200819
:1006F6002407A200220884002D3083130006031D60
:10070600852B862B9C2B20082407013E0A128A1172
:1007160085240A128A11760983120313A200770927
:10072600A300A20A0319A30A2208A0002308A10015
:10073600AA2B20082407013E0A128A1185240A12D0
:100746008A11770883120313A1007608A000080017
:1007560083160313081088100811881108128812CE
:1007660000300A128A11CB200A128A114E30F50087
:10077600EB30F400F40BBD2BF50BBD2B0530F5006B
:10078600AB30F400F40BC52BF50BC52BCA2B03308D
:100796000A128A11B1200A128A110D30F500FB30B7
:1007A600F400F40BD42BF50BD42BD92B03300A12FF
:1007B6008A11B1200A128A116330F400F40BE12B7E
:1007C600E42B03300A128A11B1200A128A11023070
:1007D6000A128A11B1200A128A1102300A128A11EB
:1007E600B1200A128A1108300A128A11B1200A129F
:1007F6008A1100300A128A11B1200A128A110C30AD
:100806000A128A11B1200A128A1100300A128A11BC
:10081600B1200A128A1106300A128A11B1200A1270
:100826008A1108000A128A11AB230A128A110130B2
:100836000A128A1199200A128A1102300A128A11A2
:1008460099200A128A110C300A128A1199200A126A
:100856008A110A128A117B200A128A113E308400FC
:100866001230FF0083138001840AFF0B352C83129C
:100876000313D201D3018312031352083E3E8400B0
:10088600831380010130D2070318D30A0030D3073F
:100896005308803AFF0080307F02031D542C11302C
:1008A6005202031C572C582C3E2C2B308312031358
:1008B600BE003F300A128A119D250A128A113E3067
:1008C6000A128A1112210A128A11831203133A0894
:1008D600D1003908D0005108AE005008AD000A1208
:1008E6008A1171220A128A110A128A114A260A12DA
:1008F6008A11003A0319802C812C772C3A2C0A1283
:100906008A110028FD00FB01FC01FA018E2C013042
:10091600FF007F08FD077D08840020308313000652
:100926000319962C972C8A2C7D088400F730000733
:10093600F80005307802031CA12CA22C8A2C7D0815
:1009460084002D300006031DA92CAA2CB12CFA0117
:10095600FA0A0130FF007F08FD07DA2C7D088400C3
:100966002B300006031DB82CB92CDA2CAC2C7D08D4
:1009760084007C08F1007B08F0000A30F2000030A9
:10098600F3000A128A11ED200A128A117108F90081
:10099600831300087002F800031CF9037808303E40
:1009A600FB0079080318013E003EFC00AC2C7D08D4
:1009B6008400D0300007F8000A307802031CE42CCB
:1009C600E52CBA2C7A08031DE92CEA2CF62C7B09B7
:1009D600F8007C09F900F80A0319F90A7808F60004
:1009E6007908F700FA2C7C08F7007B08F600080067
:1009F60083120313A500A301A401A601A701892D53
:100A06008312031326082507A200220884002B3030
:100A1600831300060319102D112D1C2D26082507FA
:100A2600A200220884002D300006031D1B2D1C2D5C
:100A3600832D0130A6070318A70A0030A70726084A
:100A46002507A2002208FF3E84002B300006031D66
:100A56002D2D2E2D3E2D260825070A128A118524B6
:100A66000A128A11760883120313A3070318A40A2D
:100A76007708A407562D260825070A128A11852409
:100A86000A128A11760883120313A3027708031C3D
:100A9600A403A402562D013083120313A6070318DC
:100AA600A70A0030A70726082507A2002208840007
:100AB600303083130002031C612D622D7A2D260827
:100AC6002507A200220884003A30000203186C2D84
:100AD6006D2D7A2D2708803AFF0080307F02031D96
:100AE600762D11302602031C792D7A2D4E2DFF30DE
:100AF60083120313A6070318A70AFF30A707892D39
:100B06000130A6070318A70A0030A7072708803A6E
:100B1600FF0080307F02031D922D11302602031C38
:100B2600952D962D032D831203132408A100230867
:100B3600A000080083120313B10001300A128A11C3
:100B460099200A128A1102300A128A1199200A1271
:100B56008A110C300A128A1199200A128A11203041
:100B660084001130FF0083138001840AFF0BB62D29
:100B7600F401F40A01300A128A1138210A128A1184
:100B860083120313B201B301831203133208203E0A
:100B9600840083138001D92D3208203E84000A1276
:100BA6008A114A260A128A118313800083120313BC
:100BB6003208203E840000080319E22DE32DCF2DD4
:100BC600831203133208203E84000A128A114A2631
:100BD6000A128A11831300060319F22DF32DE32D51
:100BE600831203133208203E840000080A128A1179
:100BF6006B200A128A11831203133208203E8400E6
:100C060083130008FF0032083107FA007A088400CF
:100C16007F0880003208203E84003D300006031D18
:100C2600152E162E172E492E3208203E84006330CC
:100C36000006031D1F2E202E342EB201B3010130F3
:100C46000A128A1199200A128A1102300A128A118E
:100C560099200A128A110C300A128A1199200A1256
:100C66008A11013083120313B2070318B30A003046
:100C7600B3073308803AFF0080307F02031D452EFC
:100C860010303202031C482E492EC72D0800FF30B3
:100C96008312031386000608FE398600061A542EB0
:100CA600552E5B2E061E582E592E552E3730012FE7
:100CB600861A5E2E5F2E652E861E622E632E5F2E90
:100CC6003830012F061B682E692E6F2E061F6C2EDC
:100CD6006D2E692E3930012F861B722E732E792EBA
:100CE600861F762E772E732E2F30012FFF3086002B
:100CF6000608FD398600061A812E822E882E061ECB
:100D0600852E862E822E3430012F861A8B2E8C2E1F
:100D1600922E861E8F2E902E8C2E3530012F061B7E
:100D2600952E962E9C2E061F992E9A2E962E36308E
:100D3600012F861B9F2EA02EA62E861FA32EA42E25
:100D4600A02E2A30012FFF3086000608FB398600C8
:100D5600061AAE2EAF2EB52E061EB22EB32EAF2E0F
:100D66003130012F861AB82EB92EBF2E861EBC2E04
:100D7600BD2EB92E3230012F061BC22EC32EC92E10
:100D8600061FC62EC72EC32E3330012F861BCC2E30
:100D9600CD2ED32E861FD02ED12ECD2E2D30012F27
:100DA600FF3086000608F7398600061ADB2EDC2E91
:100DB600E22E061EDF2EE02EDC2E6330012F861A71
:100DC600E52EE62EEC2E861EE92EEA2EE62E303095
:100DD600012F061BEF2EF02EF62E061FF32EF42EF5
:100DE600F02E3D30012F861BF92EFA2E002F861F7E
:100DF600FD2EFE2EFA2E2B30012F00300800831216
:100E06000313B600B401B501B701B801D72F831299
:100E1600031337083607AF002F0884002A308313E0
:100E260000060319172F182F232F37083607AF0090
:100E36002F0884002F300006031D222F232FD12FC9
:100E46000130B7070318B80A0030B8073708360765
:100E5600AF002F08FF3E84002A300006031D342F02
:100E6600352F672F370836070A128A1185240A128A
:100E76008A11770883120313B1007608B000370889
:100E8600FE3EA00036080A128A1142230A128A116F
:100E9600831203132108B3002008B2003108F100C1
:100EA6003008F0003308F3003208F2000A128A1103
:100EB600ED200A128A11700883120313B40703186F
:100EC600B50A7108B507902F3708FE3EA000360810
:100ED6000A128A1142230A128A1183120313210865
:100EE600A6002008A500370836070A128A118524AD
:100EF6000A128A11770883120313A8007608A7003E
:100F06000A128A11D9220A128A118312031325089A
:100F1600B4070318B50A2608B5073708FE3EF000E1
:100F260036080A128A117D210A128A11A22F01306F
:100F360083120313B7070318B80A0030B8078312E1
:100F4600031337083607AF002F08840030308313A9
:100F56000002031CAF2FB02FC82F37083607AF008B
:100F66002F0884003A3000020318BA2FBB2FC82F6F
:100F76003808803AFF0080307F02031DC42F1130ED
:100F86003702031CC72FC82F9A2FFF308312031373
:100F9600B7070318B80AFF30B807D72F0130B707CD
:100FA6000318B80A0030B8073808803AFF008030C6
:100FB6007F02031DE02F11303702031CE32FE42FBD
:100FC6000A2F831203133508AE003408AD0008005B
:100FD60083135430840065300A128A1173200A1272
:100FE6008A11A0308400B2300A128A1173200A12C4
:0A0FF6008A1183010A128A11152CDA
:00000001FF
